{
  "_format": "hh-sol-artifact-1",
  "contractName": "Charity",
  "sourceName": "contracts/Charity.sol",
  "abi": [
    {
      "anonymous": false,
      "inputs": [
        {
          "indexed": false,
          "internalType": "uint256",
          "name": "requestId",
          "type": "uint256"
        },
        {
          "indexed": false,
          "internalType": "string",
          "name": "name",
          "type": "string"
        },
        {
          "indexed": false,
          "internalType": "uint256",
          "name": "amount",
          "type": "uint256"
        },
        {
          "indexed": false,
          "internalType": "address",
          "name": "recipient",
          "type": "address"
        }
      ],
      "name": "RequestCreated",
      "type": "event"
    },
    {
      "inputs": [
        {
          "internalType": "string",
          "name": "_name",
          "type": "string"
        },
        {
          "internalType": "string",
          "name": "_description",
          "type": "string"
        },
        {
          "internalType": "int256",
          "name": "_contact",
          "type": "int256"
        },
        {
          "internalType": "uint256",
          "name": "_amount",
          "type": "uint256"
        },
        {
          "internalType": "address payable",
          "name": "_recipient",
          "type": "address"
        }
      ],
      "name": "createRequest",
      "outputs": [],
      "stateMutability": "nonpayable",
      "type": "function"
    },
    {
      "inputs": [
        {
          "internalType": "uint256",
          "name": "_requestId",
          "type": "uint256"
        }
      ],
      "name": "donate",
      "outputs": [],
      "stateMutability": "payable",
      "type": "function"
    },
    {
      "inputs": [],
      "name": "getContractBalance",
      "outputs": [
        {
          "internalType": "uint256",
          "name": "",
          "type": "uint256"
        }
      ],
      "stateMutability": "view",
      "type": "function"
    },
    {
      "inputs": [
        {
          "internalType": "uint256",
          "name": "_requestId",
          "type": "uint256"
        }
      ],
      "name": "getRequest",
      "outputs": [
        {
          "internalType": "string",
          "name": "name",
          "type": "string"
        },
        {
          "internalType": "string",
          "name": "description",
          "type": "string"
        },
        {
          "internalType": "int256",
          "name": "contact",
          "type": "int256"
        },
        {
          "internalType": "uint256",
          "name": "amount",
          "type": "uint256"
        },
        {
          "internalType": "uint256",
          "name": "received",
          "type": "uint256"
        },
        {
          "internalType": "address",
          "name": "recipient",
          "type": "address"
        },
        {
          "internalType": "bool",
          "name": "complete",
          "type": "bool"
        },
        {
          "internalType": "uint256",
          "name": "approvalCount",
          "type": "uint256"
        }
      ],
      "stateMutability": "view",
      "type": "function"
    },
    {
      "inputs": [],
      "name": "numRequests",
      "outputs": [
        {
          "internalType": "uint256",
          "name": "",
          "type": "uint256"
        }
      ],
      "stateMutability": "view",
      "type": "function"
    },
    {
      "inputs": [],
      "name": "requestLength",
      "outputs": [
        {
          "internalType": "uint256",
          "name": "",
          "type": "uint256"
        }
      ],
      "stateMutability": "view",
      "type": "function"
    },
    {
      "inputs": [
        {
          "internalType": "uint256",
          "name": "",
          "type": "uint256"
        }
      ],
      "name": "requests",
      "outputs": [
        {
          "internalType": "string",
          "name": "name",
          "type": "string"
        },
        {
          "internalType": "string",
          "name": "description",
          "type": "string"
        },
        {
          "internalType": "int256",
          "name": "contact",
          "type": "int256"
        },
        {
          "internalType": "uint256",
          "name": "amount",
          "type": "uint256"
        },
        {
          "internalType": "uint256",
          "name": "received",
          "type": "uint256"
        },
        {
          "internalType": "address payable",
          "name": "recipient",
          "type": "address"
        },
        {
          "internalType": "bool",
          "name": "complete",
          "type": "bool"
        },
        {
          "internalType": "uint256",
          "name": "approvalCount",
          "type": "uint256"
        }
      ],
      "stateMutability": "view",
      "type": "function"
    },
    {
      "stateMutability": "payable",
      "type": "receive"
    }
  ],
  "bytecode": "0x608060405234801561001057600080fd5b506112f3806100206000396000f3fe6080604052600436106100745760003560e01c80639fb42b1f1161004e5780639fb42b1f1461011a578063c58343ef14610145578063e02d61c814610189578063f14faf6f146101b25761007b565b806345f12c69146100805780636f9fb98a146100ab57806381d12c58146100d65761007b565b3661007b57005b600080fd5b34801561008c57600080fd5b506100956101ce565b6040516100a29190610e4e565b60405180910390f35b3480156100b757600080fd5b506100c06101da565b6040516100cd9190610e4e565b60405180910390f35b3480156100e257600080fd5b506100fd60048036038101906100f89190610bb1565b6101e2565b604051610111989796959493929190610cd6565b60405180910390f35b34801561012657600080fd5b5061012f610377565b60405161013c9190610e4e565b60405180910390f35b34801561015157600080fd5b5061016c60048036038101906101679190610bb1565b61037d565b604051610180989796959493929190610d62565b60405180910390f35b34801561019557600080fd5b506101b060048036038101906101ab9190610b0a565b610628565b005b6101cc60048036038101906101c79190610bb1565b6107e2565b005b60008080549050905090565b600047905090565b600081815481106101f257600080fd5b90600052602060002090600702016000915090508060000180546102159061108d565b80601f01602080910402602001604051908101604052809291908181526020018280546102419061108d565b801561028e5780601f106102635761010080835404028352916020019161028e565b820191906000526020600020905b81548152906001019060200180831161027157829003601f168201915b5050505050908060010180546102a39061108d565b80601f01602080910402602001604051908101604052809291908181526020018280546102cf9061108d565b801561031c5780601f106102f15761010080835404028352916020019161031c565b820191906000526020600020905b8154815290600101906020018083116102ff57829003601f168201915b5050505050908060020154908060030154908060040154908060050160009054906101000a900473ffffffffffffffffffffffffffffffffffffffff16908060050160149054906101000a900460ff16908060060154905088565b60015481565b60608060008060008060008060008054905089106103d0576040517f08c379a00000000000000000000000000000000000000000000000000000000081526004016103c790610e0e565b60405180910390fd5b6000808a8154811061040b577f4e487b7100000000000000000000000000000000000000000000000000000000600052603260045260246000fd5b9060005260206000209060070201604051806101000160405290816000820180546104359061108d565b80601f01602080910402602001604051908101604052809291908181526020018280546104619061108d565b80156104ae5780601f10610483576101008083540402835291602001916104ae565b820191906000526020600020905b81548152906001019060200180831161049157829003601f168201915b505050505081526020016001820180546104c79061108d565b80601f01602080910402602001604051908101604052809291908181526020018280546104f39061108d565b80156105405780601f1061051557610100808354040283529160200191610540565b820191906000526020600020905b81548152906001019060200180831161052357829003601f168201915b505050505081526020016002820154815260200160038201548152602001600482015481526020016005820160009054906101000a900473ffffffffffffffffffffffffffffffffffffffff1673ffffffffffffffffffffffffffffffffffffffff1673ffffffffffffffffffffffffffffffffffffffff1681526020016005820160149054906101000a900460ff161515151581526020016006820154815250509050806000015181602001518260400151836060015184608001518560a001518660c001518760e001519850985098509850985098509850985050919395975091939597565b6000604051806101000160405280878152602001868152602001858152602001848152602001600081526020018373ffffffffffffffffffffffffffffffffffffffff16815260200160001515815260200160008152509050600081908060018154018082558091505060019003906000526020600020906007020160009091909190915060008201518160000190805190602001906106c99291906109c0565b5060208201518160010190805190602001906106e69291906109c0565b5060408201518160020155606082015181600301556080820151816004015560a08201518160050160006101000a81548173ffffffffffffffffffffffffffffffffffffffff021916908373ffffffffffffffffffffffffffffffffffffffff16021790555060c08201518160050160146101000a81548160ff02191690831515021790555060e0820151816006015550506001600081548092919061078b906110f0565b91905055507ff7365309cb3a1c4835d32acd2153ebf718723e270daad5bb2aac6dd47564583b600180546107bf9190610f7d565b8785856040516107d29493929190610e69565b60405180910390a1505050505050565b6000805490508110610829576040517f08c379a000000000000000000000000000000000000000000000000000000000815260040161082090610e0e565b60405180910390fd5b6000808281548110610864577f4e487b7100000000000000000000000000000000000000000000000000000000600052603260045260246000fd5b906000526020600020906007020190508060050160149054906101000a900460ff16156108c6576040517f08c379a00000000000000000000000000000000000000000000000000000000081526004016108bd90610e2e565b60405180910390fd5b60003411610909576040517f08c379a000000000000000000000000000000000000000000000000000000000815260040161090090610dee565b60405180910390fd5b3481600401600082825461091d9190610f27565b9250508190555080600301548160040154106109515760018160050160146101000a81548160ff0219169083151502179055505b8060050160009054906101000a900473ffffffffffffffffffffffffffffffffffffffff1673ffffffffffffffffffffffffffffffffffffffff166108fc349081150290604051600060405180830381858888f193505050501580156109bb573d6000803e3d6000fd5b505050565b8280546109cc9061108d565b90600052602060002090601f0160209004810192826109ee5760008555610a35565b82601f10610a0757805160ff1916838001178555610a35565b82800160010185558215610a35579182015b82811115610a34578251825591602001919060010190610a19565b5b509050610a429190610a46565b5090565b5b80821115610a5f576000816000905550600101610a47565b5090565b6000610a76610a7184610eda565b610eb5565b905082815260208101848484011115610a8e57600080fd5b610a9984828561104b565b509392505050565b600081359050610ab081611278565b92915050565b600081359050610ac58161128f565b92915050565b600082601f830112610adc57600080fd5b8135610aec848260208601610a63565b91505092915050565b600081359050610b04816112a6565b92915050565b600080600080600060a08688031215610b2257600080fd5b600086013567ffffffffffffffff811115610b3c57600080fd5b610b4888828901610acb565b955050602086013567ffffffffffffffff811115610b6557600080fd5b610b7188828901610acb565b9450506040610b8288828901610ab6565b9350506060610b9388828901610af5565b9250506080610ba488828901610aa1565b9150509295509295909350565b600060208284031215610bc357600080fd5b6000610bd184828501610af5565b91505092915050565b610be381611015565b82525050565b610bf281610fc3565b82525050565b610c0181610fb1565b82525050565b610c1081610fd5565b82525050565b610c1f81610fe1565b82525050565b6000610c3082610f0b565b610c3a8185610f16565b9350610c4a81856020860161105a565b610c53816111c6565b840191505092915050565b6000610c6b601b83610f16565b9150610c76826111d7565b602082019050919050565b6000610c8e601683610f16565b9150610c9982611200565b602082019050919050565b6000610cb1602283610f16565b9150610cbc82611229565b604082019050919050565b610cd08161100b565b82525050565b6000610100820190508181036000830152610cf1818b610c25565b90508181036020830152610d05818a610c25565b9050610d146040830189610c16565b610d216060830188610cc7565b610d2e6080830187610cc7565b610d3b60a0830186610be9565b610d4860c0830185610c07565b610d5560e0830184610cc7565b9998505050505050505050565b6000610100820190508181036000830152610d7d818b610c25565b90508181036020830152610d91818a610c25565b9050610da06040830189610c16565b610dad6060830188610cc7565b610dba6080830187610cc7565b610dc760a0830186610bf8565b610dd460c0830185610c07565b610de160e0830184610cc7565b9998505050505050505050565b60006020820190508181036000830152610e0781610c5e565b9050919050565b60006020820190508181036000830152610e2781610c81565b9050919050565b60006020820190508181036000830152610e4781610ca4565b9050919050565b6000602082019050610e636000830184610cc7565b92915050565b6000608082019050610e7e6000830187610cc7565b8181036020830152610e908186610c25565b9050610e9f6040830185610cc7565b610eac6060830184610bda565b95945050505050565b6000610ebf610ed0565b9050610ecb82826110bf565b919050565b6000604051905090565b600067ffffffffffffffff821115610ef557610ef4611197565b5b610efe826111c6565b9050602081019050919050565b600081519050919050565b600082825260208201905092915050565b6000610f328261100b565b9150610f3d8361100b565b9250827fffffffffffffffffffffffffffffffffffffffffffffffffffffffffffffffff03821115610f7257610f71611139565b5b828201905092915050565b6000610f888261100b565b9150610f938361100b565b925082821015610fa657610fa5611139565b5b828203905092915050565b6000610fbc82610feb565b9050919050565b6000610fce82610feb565b9050919050565b60008115159050919050565b6000819050919050565b600073ffffffffffffffffffffffffffffffffffffffff82169050919050565b6000819050919050565b600061102082611027565b9050919050565b600061103282611039565b9050919050565b600061104482610feb565b9050919050565b82818337600083830152505050565b60005b8381101561107857808201518184015260208101905061105d565b83811115611087576000848401525b50505050565b600060028204905060018216806110a557607f821691505b602082108114156110b9576110b8611168565b5b50919050565b6110c8826111c6565b810181811067ffffffffffffffff821117156110e7576110e6611197565b5b80604052505050565b60006110fb8261100b565b91507fffffffffffffffffffffffffffffffffffffffffffffffffffffffffffffffff82141561112e5761112d611139565b5b600182019050919050565b7f4e487b7100000000000000000000000000000000000000000000000000000000600052601160045260246000fd5b7f4e487b7100000000000000000000000000000000000000000000000000000000600052602260045260246000fd5b7f4e487b7100000000000000000000000000000000000000000000000000000000600052604160045260246000fd5b6000601f19601f8301169050919050565b7f4e6f20646f6e6174696f6e20616d6f756e742070726f76696465640000000000600082015250565b7f5265717565737420646f6573206e6f7420657869737400000000000000000000600082015250565b7f446f6e6174696f6e205265717565737420616c726561647920636f6d706c657460008201527f6564000000000000000000000000000000000000000000000000000000000000602082015250565b61128181610fc3565b811461128c57600080fd5b50565b61129881610fe1565b81146112a357600080fd5b50565b6112af8161100b565b81146112ba57600080fd5b5056fea26469706673582212208eb9dfac45bafebdc37ac352e414fbb362247b371e59bd22827ad05d8fa7651e64736f6c63430008020033",
  "linkReferences": {},
  "deployedLinkReferences": {}
}